{
  "contractName": "Auction",
  "abi": [
    {
      "inputs": [
        {
          "internalType": "string",
          "name": "_itemName",
          "type": "string"
        },
        {
          "internalType": "uint256",
          "name": "_startPrice",
          "type": "uint256"
        },
        {
          "internalType": "uint256",
          "name": "_durationMinutes",
          "type": "uint256"
        }
      ],
      "stateMutability": "nonpayable",
      "type": "constructor"
    },
    {
      "anonymous": false,
      "inputs": [
        {
          "indexed": true,
          "internalType": "address",
          "name": "winner",
          "type": "address"
        },
        {
          "indexed": false,
          "internalType": "uint256",
          "name": "amount",
          "type": "uint256"
        }
      ],
      "name": "AuctionEnded",
      "type": "event"
    },
    {
      "anonymous": false,
      "inputs": [
        {
          "indexed": false,
          "internalType": "string",
          "name": "itemName",
          "type": "string"
        },
        {
          "indexed": false,
          "internalType": "uint256",
          "name": "startPrice",
          "type": "uint256"
        },
        {
          "indexed": false,
          "internalType": "uint256",
          "name": "duration",
          "type": "uint256"
        }
      ],
      "name": "AuctionStarted",
      "type": "event"
    },
    {
      "anonymous": false,
      "inputs": [
        {
          "indexed": true,
          "internalType": "address",
          "name": "bidder",
          "type": "address"
        },
        {
          "indexed": false,
          "internalType": "uint256",
          "name": "amount",
          "type": "uint256"
        }
      ],
      "name": "NewBid",
      "type": "event"
    },
    {
      "anonymous": false,
      "inputs": [
        {
          "indexed": true,
          "internalType": "address",
          "name": "bidder",
          "type": "address"
        },
        {
          "indexed": false,
          "internalType": "uint256",
          "name": "amount",
          "type": "uint256"
        }
      ],
      "name": "Withdrawal",
      "type": "event"
    },
    {
      "inputs": [],
      "name": "bid",
      "outputs": [],
      "stateMutability": "payable",
      "type": "function"
    },
    {
      "inputs": [],
      "name": "withdraw",
      "outputs": [],
      "stateMutability": "nonpayable",
      "type": "function"
    },
    {
      "inputs": [],
      "name": "endAuction",
      "outputs": [],
      "stateMutability": "nonpayable",
      "type": "function"
    },
    {
      "inputs": [],
      "name": "getAuctionDetails",
      "outputs": [
        {
          "internalType": "string",
          "name": "",
          "type": "string"
        },
        {
          "internalType": "uint256",
          "name": "",
          "type": "uint256"
        },
        {
          "internalType": "uint256",
          "name": "",
          "type": "uint256"
        },
        {
          "internalType": "bool",
          "name": "",
          "type": "bool"
        },
        {
          "internalType": "address",
          "name": "",
          "type": "address"
        },
        {
          "internalType": "uint256",
          "name": "",
          "type": "uint256"
        }
      ],
      "stateMutability": "view",
      "type": "function"
    },
    {
      "inputs": [
        {
          "internalType": "address",
          "name": "bidder",
          "type": "address"
        }
      ],
      "name": "getPendingReturns",
      "outputs": [
        {
          "internalType": "uint256",
          "name": "",
          "type": "uint256"
        }
      ],
      "stateMutability": "view",
      "type": "function"
    },
    {
      "inputs": [],
      "name": "getSeller",
      "outputs": [
        {
          "internalType": "address",
          "name": "",
          "type": "address"
        }
      ],
      "stateMutability": "view",
      "type": "function"
    }
  ],
  "bytecode": "0x60a06040523480156200001157600080fd5b5060405162001824380380620018248339818101604052810190620000379190620003c4565b600081116200007d576040517f08c379a00000000000000000000000000000000000000000000000000000000081526004016200007490620004c6565b60405180910390fd5b3373ffffffffffffffffffffffffffffffffffffffff1660808173ffffffffffffffffffffffffffffffffffffffff16815250508260009080519060200190620000c99291906200013c565b5081600181905550603c81620000e0919062000517565b42620000ed919062000578565b6002819055507faeeb4d2ec3a638905a8bd63e9e6e884d8048f914acf3289c675bf5f9b17e0fbc6000600154836040516200012b93929190620006eb565b60405180910390a15050506200072f565b8280546200014a9062000604565b90600052602060002090601f0160209004810192826200016e5760008555620001ba565b82601f106200018957805160ff1916838001178555620001ba565b82800160010185558215620001ba579182015b82811115620001b95782518255916020019190600101906200019c565b5b509050620001c99190620001cd565b5090565b5b80821115620001e8576000816000905550600101620001ce565b5090565b6000604051905090565b600080fd5b600080fd5b600080fd5b600080fd5b6000601f19601f8301169050919050565b7f4e487b7100000000000000000000000000000000000000000000000000000000600052604160045260246000fd5b62000255826200020a565b810181811067ffffffffffffffff821117156200027757620002766200021b565b5b80604052505050565b60006200028c620001ec565b90506200029a82826200024a565b919050565b600067ffffffffffffffff821115620002bd57620002bc6200021b565b5b620002c8826200020a565b9050602081019050919050565b60005b83811015620002f5578082015181840152602081019050620002d8565b8381111562000305576000848401525b50505050565b6000620003226200031c846200029f565b62000280565b90508281526020810184848401111562000341576200034062000205565b5b6200034e848285620002d5565b509392505050565b600082601f8301126200036e576200036d62000200565b5b8151620003808482602086016200030b565b91505092915050565b6000819050919050565b6200039e8162000389565b8114620003aa57600080fd5b50565b600081519050620003be8162000393565b92915050565b600080600060608486031215620003e057620003df620001f6565b5b600084015167ffffffffffffffff811115620004015762000400620001fb565b5b6200040f8682870162000356565b93505060206200042286828701620003ad565b92505060406200043586828701620003ad565b9150509250925092565b600082825260208201905092915050565b7f41756374696f6e206475726174696f6e206d757374206265206772656174657260008201527f207468616e207a65726f2e000000000000000000000000000000000000000000602082015250565b6000620004ae602b836200043f565b9150620004bb8262000450565b604082019050919050565b60006020820190508181036000830152620004e1816200049f565b9050919050565b7f4e487b7100000000000000000000000000000000000000000000000000000000600052601160045260246000fd5b6000620005248262000389565b9150620005318362000389565b9250817fffffffffffffffffffffffffffffffffffffffffffffffffffffffffffffffff04831182151516156200056d576200056c620004e8565b5b828202905092915050565b6000620005858262000389565b9150620005928362000389565b9250827fffffffffffffffffffffffffffffffffffffffffffffffffffffffffffffffff03821115620005ca57620005c9620004e8565b5b828201905092915050565b7f4e487b7100000000000000000000000000000000000000000000000000000000600052602260045260246000fd5b600060028204905060018216806200061d57607f821691505b602082108103620006335762000632620005d5565b5b50919050565b60008190508160005260206000209050919050565b600081546200065d8162000604565b6200066981866200043f565b945060018216600081146200068757600181146200069a57620006d1565b60ff1983168652602086019350620006d1565b620006a58562000639565b60005b83811015620006c957815481890152600182019150602081019050620006a8565b808801955050505b50505092915050565b620006e58162000389565b82525050565b600060608201905081810360008301526200070781866200064e565b9050620007186020830185620006da565b620007276040830184620006da565b949350505050565b6080516110c4620007606000396000818161012c0152818161065b0152818161068101526107b501526110c46000f3fe6080604052600436106100555760003560e01c80631998aeef1461005a5780633a6dcea2146100645780633ccfd60b1461009457806383ffda3b146100ab578063dbd0e1b6146100e8578063fe67a54b14610113575b600080fd5b61006261012a565b005b34801561007057600080fd5b5061007961035d565b60405161008b96959493929190610a29565b60405180910390f35b3480156100a057600080fd5b506100a9610444565b005b3480156100b757600080fd5b506100d260048036038101906100cd9190610ac2565b61060e565b6040516100df9190610aef565b60405180910390f35b3480156100f457600080fd5b506100fd610657565b60405161010a9190610b0a565b60405180910390f35b34801561011f57600080fd5b5061012861067f565b005b7f000000000000000000000000000000000000000000000000000000000000000073ffffffffffffffffffffffffffffffffffffffff163373ffffffffffffffffffffffffffffffffffffffff16036101b8576040517f08c379a00000000000000000000000000000000000000000000000000000000081526004016101af90610b97565b60405180910390fd5b60025442106101fc576040517f08c379a00000000000000000000000000000000000000000000000000000000081526004016101f390610c03565b60405180910390fd5b6004543411610240576040517f08c379a000000000000000000000000000000000000000000000000000000000815260040161023790610c95565b60405180910390fd5b6000600454146102c55760045460056000600360019054906101000a900473ffffffffffffffffffffffffffffffffffffffff1673ffffffffffffffffffffffffffffffffffffffff1673ffffffffffffffffffffffffffffffffffffffff16815260200190815260200160002060008282546102bd9190610ce4565b925050819055505b33600360016101000a81548173ffffffffffffffffffffffffffffffffffffffff021916908373ffffffffffffffffffffffffffffffffffffffff160217905550346004819055503373ffffffffffffffffffffffffffffffffffffffff167fdd0b6c6a77960e2066c96171b4d7ac9e8b4c184011f38544afa36a5bb63ec59f346040516103539190610aef565b60405180910390a2565b6060600080600080600080600154600254600360009054906101000a900460ff16600360019054906101000a900473ffffffffffffffffffffffffffffffffffffffff166004548580546103b090610d69565b80601f01602080910402602001604051908101604052809291908181526020018280546103dc90610d69565b80156104295780601f106103fe57610100808354040283529160200191610429565b820191906000526020600020905b81548152906001019060200180831161040c57829003601f168201915b50505050509550955095509550955095509550909192939495565b6000600560003373ffffffffffffffffffffffffffffffffffffffff1673ffffffffffffffffffffffffffffffffffffffff168152602001908152602001600020549050600081116104cb576040517f08c379a00000000000000000000000000000000000000000000000000000000081526004016104c290610de6565b60405180910390fd5b6000600560003373ffffffffffffffffffffffffffffffffffffffff1673ffffffffffffffffffffffffffffffffffffffff1681526020019081526020016000208190555060003373ffffffffffffffffffffffffffffffffffffffff168260405161053690610e37565b60006040518083038185875af1925050503d8060008114610573576040519150601f19603f3d011682016040523d82523d6000602084013e610578565b606091505b50509050806105bc576040517f08c379a00000000000000000000000000000000000000000000000000000000081526004016105b390610e98565b60405180910390fd5b3373ffffffffffffffffffffffffffffffffffffffff167f7fcf532c15f0a6db0bd6d0e038bea71d30d808c7d98cb3bf7268a95bf5081b65836040516106029190610aef565b60405180910390a25050565b6000600560008373ffffffffffffffffffffffffffffffffffffffff1673ffffffffffffffffffffffffffffffffffffffff168152602001908152602001600020549050919050565b60007f0000000000000000000000000000000000000000000000000000000000000000905090565b7f000000000000000000000000000000000000000000000000000000000000000073ffffffffffffffffffffffffffffffffffffffff163373ffffffffffffffffffffffffffffffffffffffff161461070d576040517f08c379a000000000000000000000000000000000000000000000000000000000815260040161070490610f2a565b60405180910390fd5b600360009054906101000a900460ff161561075d576040517f08c379a000000000000000000000000000000000000000000000000000000000815260040161075490610f96565b60405180910390fd5b6001600360006101000a81548160ff021916908315150217905550600060045411156108d357600060045490506000600360019054906101000a900473ffffffffffffffffffffffffffffffffffffffff16905060007f000000000000000000000000000000000000000000000000000000000000000073ffffffffffffffffffffffffffffffffffffffff16836040516107f790610e37565b60006040518083038185875af1925050503d8060008114610834576040519150601f19603f3d011682016040523d82523d6000602084013e610839565b606091505b505090508061087d576040517f08c379a000000000000000000000000000000000000000000000000000000000815260040161087490611002565b60405180910390fd5b8173ffffffffffffffffffffffffffffffffffffffff167fdaec4582d5d9595688c8c98545fdd1c696d41c6aeaeb636737e84ed2f5c00eda846040516108c39190610aef565b60405180910390a2505050610919565b600060045411610918576040517f08c379a000000000000000000000000000000000000000000000000000000000815260040161090f9061106e565b60405180910390fd5b5b565b600081519050919050565b600082825260208201905092915050565b60005b8381101561095557808201518184015260208101905061093a565b83811115610964576000848401525b50505050565b6000601f19601f8301169050919050565b60006109868261091b565b6109908185610926565b93506109a0818560208601610937565b6109a98161096a565b840191505092915050565b6000819050919050565b6109c7816109b4565b82525050565b60008115159050919050565b6109e2816109cd565b82525050565b600073ffffffffffffffffffffffffffffffffffffffff82169050919050565b6000610a13826109e8565b9050919050565b610a2381610a08565b82525050565b600060c0820190508181036000830152610a43818961097b565b9050610a5260208301886109be565b610a5f60408301876109be565b610a6c60608301866109d9565b610a796080830185610a1a565b610a8660a08301846109be565b979650505050505050565b600080fd5b610a9f81610a08565b8114610aaa57600080fd5b50565b600081359050610abc81610a96565b92915050565b600060208284031215610ad857610ad7610a91565b5b6000610ae684828501610aad565b91505092915050565b6000602082019050610b0460008301846109be565b92915050565b6000602082019050610b1f6000830184610a1a565b92915050565b7f53656c6c65722063616e6e6f7420626964206f6e207468656972206f776e206160008201527f756374696f6e2e00000000000000000000000000000000000000000000000000602082015250565b6000610b81602783610926565b9150610b8c82610b25565b604082019050919050565b60006020820190508181036000830152610bb081610b74565b9050919050565b7f41756374696f6e2068617320656e6465642e0000000000000000000000000000600082015250565b6000610bed601283610926565b9150610bf882610bb7565b602082019050919050565b60006020820190508181036000830152610c1c81610be0565b9050919050565b7f546865726520616c7265616479206973206120686967686572206f722065717560008201527f616c206269642e00000000000000000000000000000000000000000000000000602082015250565b6000610c7f602783610926565b9150610c8a82610c23565b604082019050919050565b60006020820190508181036000830152610cae81610c72565b9050919050565b7f4e487b7100000000000000000000000000000000000000000000000000000000600052601160045260246000fd5b6000610cef826109b4565b9150610cfa836109b4565b9250827fffffffffffffffffffffffffffffffffffffffffffffffffffffffffffffffff03821115610d2f57610d2e610cb5565b5b828201905092915050565b7f4e487b7100000000000000000000000000000000000000000000000000000000600052602260045260246000fd5b60006002820490506001821680610d8157607f821691505b602082108103610d9457610d93610d3a565b5b50919050565b7f4e6f2066756e647320746f2077697468647261772e0000000000000000000000600082015250565b6000610dd0601583610926565b9150610ddb82610d9a565b602082019050919050565b60006020820190508181036000830152610dff81610dc3565b9050919050565b600081905092915050565b50565b6000610e21600083610e06565b9150610e2c82610e11565b600082019050919050565b6000610e4282610e14565b9150819050919050565b7f5769746864726177616c206661696c65642e0000000000000000000000000000600082015250565b6000610e82601283610926565b9150610e8d82610e4c565b602082019050919050565b60006020820190508181036000830152610eb181610e75565b9050919050565b7f4f6e6c79207468652073656c6c65722063616e20656e6420746865206175637460008201527f696f6e2e00000000000000000000000000000000000000000000000000000000602082015250565b6000610f14602483610926565b9150610f1f82610eb8565b604082019050919050565b60006020820190508181036000830152610f4381610f07565b9050919050565b7f41756374696f6e2068617320616c726561647920656e6465642e000000000000600082015250565b6000610f80601a83610926565b9150610f8b82610f4a565b602082019050919050565b60006020820190508181036000830152610faf81610f73565b9050919050565b7f5472616e7366657220746f2073656c6c6572206661696c65642e000000000000600082015250565b6000610fec601a83610926565b9150610ff782610fb6565b602082019050919050565b6000602082019050818103600083015261101b81610fdf565b9050919050565b7f4e6f626f64792068617320626964000000000000000000000000000000000000600082015250565b6000611058600e83610926565b915061106382611022565b602082019050919050565b600060208201905081810360008301526110878161104b565b905091905056fea26469706673582212200a0fe6d1a211efdd61490dbd612a1fc6b803d583463eef6321ee54993fdf1bb864736f6c634300080d0033",
  "immutableReferences": {
    "3": [
      {
        "length": 32,
        "start": 300
      },
      {
        "length": 32,
        "start": 1627
      },
      {
        "length": 32,
        "start": 1665
      },
      {
        "length": 32,
        "start": 1973
      }
    ]
  },
  "source": "// SPDX-License-Identifier: MIT\r\npragma solidity ^0.8.0;\r\n\r\ncontract Auction {\r\n    address payable private immutable seller;\r\n    string private itemName;\r\n    uint private startPrice;\r\n    uint private auctionEndTime;\r\n    bool internal ended;\r\n\r\n    address private highestBidder;\r\n    uint private highestBid;\r\n\r\n    mapping(address => uint) private pendingReturns;\r\n\r\n    event AuctionStarted(string itemName, uint startPrice, uint duration);\r\n    event NewBid(address indexed bidder, uint amount);\r\n    event AuctionEnded(address indexed winner, uint amount);\r\n    event Withdrawal(address indexed bidder, uint amount);\r\n\r\n    constructor(string memory _itemName, uint _startPrice, uint _durationMinutes) {\r\n        require(_durationMinutes > 0, \"Auction duration must be greater than zero.\");\r\n        \r\n        seller = payable(msg.sender);\r\n        itemName = _itemName;\r\n        startPrice = _startPrice;\r\n        auctionEndTime = block.timestamp + (_durationMinutes * 1 minutes);\r\n\r\n        emit AuctionStarted(itemName, startPrice, _durationMinutes);\r\n    }\r\n\r\n    function bid() external payable {\r\n        require(msg.sender != seller, \"Seller cannot bid on their own auction.\");\r\n        require(block.timestamp < auctionEndTime, \"Auction has ended.\");\r\n        require(msg.value > highestBid, \"There already is a higher or equal bid.\");\r\n\r\n        if (highestBid != 0) {\r\n            pendingReturns[highestBidder] += highestBid;\r\n        }\r\n\r\n        highestBidder = msg.sender;\r\n        highestBid = msg.value;\r\n\r\n        emit NewBid(msg.sender, msg.value);\r\n    }\r\n\r\n    function withdraw() external {\r\n        uint amount = pendingReturns[msg.sender];\r\n        require(amount > 0, \"No funds to withdraw.\");\r\n\r\n        pendingReturns[msg.sender] = 0;\r\n\r\n        (bool success, ) = msg.sender.call{value: amount}(\"\");\r\n        require(success, \"Withdrawal failed.\");\r\n\r\n        emit Withdrawal(msg.sender, amount);\r\n    }\r\n\r\n    function endAuction() external {\r\n        require(msg.sender == seller, \"Only the seller can end the auction.\");\r\n        require(!ended, \"Auction has already ended.\");\r\n\r\n        ended = true;\r\n        if(highestBid>0){\r\n            uint finalAmount = highestBid;\r\n            address winner = highestBidder;\r\n\r\n            (bool success, ) = seller.call{value: finalAmount}(\"\");\r\n            require(success, \"Transfer to seller failed.\");\r\n\r\n            emit AuctionEnded(winner, finalAmount);\r\n        }\r\n        else{\r\n            require(highestBid > 0, \"Nobody has bid\");\r\n        }\r\n    }\r\n\r\n    function getAuctionDetails() external view returns (\r\n        string memory, uint, uint, bool, address, uint\r\n    ) {\r\n        return (\r\n            itemName,\r\n            startPrice,\r\n            auctionEndTime,\r\n            ended,\r\n            highestBidder,\r\n            highestBid\r\n        );\r\n    }\r\n\r\n    function getPendingReturns(address bidder) external view returns (uint) {\r\n        return pendingReturns[bidder];\r\n    }\r\n\r\n    function getSeller() external view returns (address) {\r\n        return seller;\r\n    }\r\n}\r\n",
  "sourcePath": "C:\\Users\\Ugne\\Desktop\\Blockchain\\Ethereum_Smart_Contract\\Ethereum_Smart_Contract\\contracts\\Auction.sol",
  "compiler": {
    "name": "solc",
    "version": "0.8.13+commit.abaa5c0e.Emscripten.clang"
  },
  "schemaVersion": "3.4.16",
  "updatedAt": "2024-12-11T19:48:02.644Z",
  "devdoc": {
    "kind": "dev",
    "methods": {},
    "version": 1
  },
  "userdoc": {
    "kind": "user",
    "methods": {},
    "version": 1
  }
}